{
  "contractName": "HelloWorld",
  "abi": [
    {
      "constant": true,
      "inputs": [],
      "name": "getMessage",
      "outputs": [
        {
          "internalType": "string",
          "name": "",
          "type": "string"
        }
      ],
      "payable": false,
      "stateMutability": "view",
      "type": "function"
    },
    {
      "constant": false,
      "inputs": [
        {
          "internalType": "string",
          "name": "newMessage",
          "type": "string"
        }
      ],
      "name": "setMessage",
      "outputs": [],
      "payable": true,
      "stateMutability": "payable",
      "type": "function"
    }
  ],
  "bytecode": "0x60806040526040518060400160405280600c81526020017f48656c6c6f20576f726c642100000000000000000000000000000000000000008152506000908051906020019061004f929190610062565b5034801561005c57600080fd5b50610107565b828054600181600116156101000203166002900490600052602060002090601f016020900481019282601f106100a357805160ff19168380011785556100d1565b828001600101855582156100d1579182015b828111156100d05782518255916020019190600101906100b5565b5b5090506100de91906100e2565b5090565b61010491905b808211156101005760008160009055506001016100e8565b5090565b90565b610392806101166000396000f3fe6080604052600436106100295760003560e01c8063368b87721461002e578063ce6d41de146100e9575b600080fd5b6100e76004803603602081101561004457600080fd5b810190808035906020019064010000000081111561006157600080fd5b82018360208201111561007357600080fd5b8035906020019184600183028401116401000000008311171561009557600080fd5b91908080601f016020809104026020016040519081016040528093929190818152602001838380828437600081840152601f19601f820116905080830192505050505050509192919290505050610179565b005b3480156100f557600080fd5b506100fe6101f4565b6040518080602001828103825283818151815260200191508051906020019080838360005b8381101561013e578082015181840152602081019050610123565b50505050905090810190601f16801561016b5780820380516001836020036101000a031916815260200191505b509250505060405180910390f35b670de0b6b3a76400003410156101da576040517f08c379a000000000000000000000000000000000000000000000000000000000815260040180806020018281038252602281526020018061033c6022913960400191505060405180910390fd5b80600090805190602001906101f0929190610296565b5050565b606060008054600181600116156101000203166002900480601f01602080910402602001604051908101604052809291908181526020018280546001816001161561010002031660029004801561028c5780601f106102615761010080835404028352916020019161028c565b820191906000526020600020905b81548152906001019060200180831161026f57829003601f168201915b5050505050905090565b828054600181600116156101000203166002900490600052602060002090601f016020900481019282601f106102d757805160ff1916838001178555610305565b82800160010185558215610305579182015b828111156103045782518255916020019190600101906102e9565b5b5090506103129190610316565b5090565b61033891905b8082111561033457600081600090555060010161031c565b5090565b9056fe53656e646572206d75737420706179206174206c65617374206f6e65206574686572a265627a7a723158205f80f27c2a686bd4c72b1f58d9754915ea5d3c5a577f8fb2757fb884dda01ab764736f6c634300050c0032",
  "source": "pragma solidity 0.5.12;\n\ncontract HelloWorld {\n  string message = \"Hello World!\";\n\n  function getMessage() public view returns (string memory) {\n    return message;\n  }\n\n  function setMessage(string memory newMessage) public payable {\n    require(msg.value >= 1 ether, 'Sender must pay at least one ether');\n    message = newMessage;\n  }\n}",
  "sourcePath": "/Users/davidsalgado/code/ethereum-course-advanced-HelloWorld/contracts/HelloWorld.sol",
  "compiler": {
    "name": "solc",
    "version": "0.5.12+commit.7709ece9.Emscripten.clang"
  },
  "schemaVersion": "3.0.16",
  "updatedAt": "2020-06-18T03:45:07.077Z",
  "devdoc": {
    "methods": {}
  },
  "userdoc": {
    "methods": {}
  }
}